{
  "contractName": "Booth",
  "abi": [
    {
      "anonymous": false,
      "inputs": [
        {
          "indexed": false,
          "internalType": "string",
          "name": "name",
          "type": "string"
        },
        {
          "indexed": false,
          "internalType": "string",
          "name": "party",
          "type": "string"
        },
        {
          "indexed": false,
          "internalType": "uint256",
          "name": "id",
          "type": "uint256"
        }
      ],
      "name": "ContestantAdded",
      "type": "event"
    },
    {
      "anonymous": false,
      "inputs": [
        {
          "indexed": false,
          "internalType": "address",
          "name": "voterAddress",
          "type": "address"
        }
      ],
      "name": "Registered",
      "type": "event"
    },
    {
      "anonymous": false,
      "inputs": [
        {
          "indexed": false,
          "internalType": "string",
          "name": "name",
          "type": "string"
        },
        {
          "indexed": false,
          "internalType": "string",
          "name": "party",
          "type": "string"
        }
      ],
      "name": "Voted",
      "type": "event"
    },
    {
      "inputs": [],
      "name": "candidateId",
      "outputs": [
        {
          "internalType": "uint256",
          "name": "",
          "type": "uint256"
        }
      ],
      "stateMutability": "view",
      "type": "function",
      "constant": true
    },
    {
      "inputs": [
        {
          "internalType": "string",
          "name": "name",
          "type": "string"
        },
        {
          "internalType": "string",
          "name": "party",
          "type": "string"
        }
      ],
      "name": "addContestant",
      "outputs": [],
      "stateMutability": "nonpayable",
      "type": "function"
    },
    {
      "inputs": [
        {
          "internalType": "uint256",
          "name": "id",
          "type": "uint256"
        }
      ],
      "name": "vote",
      "outputs": [],
      "stateMutability": "nonpayable",
      "type": "function"
    },
    {
      "inputs": [],
      "name": "registerVoter",
      "outputs": [],
      "stateMutability": "nonpayable",
      "type": "function"
    }
  ],
  "bytecode": "0x608060405234801561001057600080fd5b506108f7806100206000396000f3fe608060405234801561001057600080fd5b506004361061004c5760003560e01c80630121b93f146100515780639f91e6bf14610066578063c8fdc2ea14610081578063ecb617d914610094575b600080fd5b61006461005f3660046105d0565b61009c565b005b61006f60005481565b60405190815260200160405180910390f35b61006461008f36600461068c565b61024b565b6100646103e3565b6000811180156100ae57506000548111155b6100ff5760405162461bcd60e51b815260206004820152601760248201527f506c6561736520656e74657220612076616c696420696400000000000000000060448201526064015b60405180910390fd5b33600090815260036020526040902054610100900460ff1661015a5760405162461bcd60e51b81526020600482015260146024820152731d9bdd195c88191bd95cc81b9bdd08195e1a5cdd60621b60448201526064016100f6565b3360009081526003602052604090205460ff16156101ba5760405162461bcd60e51b815260206004820152601760248201527f766f7465722068617320616c726561647920766f74656400000000000000000060448201526064016100f6565b60008181526002602081905260408220018054600192906101dc908490610706565b9091555050336000908152600360209081526040808320805460ff1916600190811790915584845260029092529182902091517f1fe200859f80731381e281cec03b60a1233f1b10ef1ecc058b1246c9b16f1a4892610240929091908201906107f7565b60405180910390a150565b60008054908061025a83610825565b9091555050604080516080810182528381526020808201849052600082840181905233606084015280548152600282529290922081518051929391926102a392849201906104bc565b5060208281015180516102bc92600185019201906104bc565b50604082810151600280840191909155606090930151600390920180546001600160a01b039093166001600160a01b03199093169290921790915560008054815260209290925281206001805480820182559252805490916004027fb10e2d527612073b26eecdfd717e6a320cf44b4afac2b0732d9fcbe2b7fa0cf60190819083906103479061071e565b610352929190610540565b5060018201816001019080546103679061071e565b610372929190610540565b5060028281015490820155600391820154910180546001600160a01b0319166001600160a01b039092169190911790556000546040517f3f06c37be0186362983134864f50b39e5523d52b7bbb5d584b46c0d226138db4916103d7918591859161088b565b60405180910390a15050565b33600090815260036020526040902054610100900460ff161561043f5760405162461bcd60e51b8152602060048201526014602482015273766f74657220616c72656164792065786973747360601b60448201526064016100f6565b60408051808201825260008082526001602080840191825233808452600382529285902093518454925161ffff1990931690151561ff00191617610100921515929092029190911790925591519182527f2d3734a8e47ac8316e500ac231c90a6e1848ca2285f40d07eaa52005e4b3a0e9910160405180910390a1565b8280546104c89061071e565b90600052602060002090601f0160209004810192826104ea5760008555610530565b82601f1061050357805160ff1916838001178555610530565b82800160010185558215610530579182015b82811115610530578251825591602001919060010190610515565b5061053c9291506105bb565b5090565b82805461054c9061071e565b90600052602060002090601f01602090048101928261056e5760008555610530565b82601f1061057f5780548555610530565b8280016001018555821561053057600052602060002091601f016020900482015b828111156105305782548255916001019190600101906105a0565b5b8082111561053c57600081556001016105bc565b6000602082840312156105e257600080fd5b5035919050565b634e487b7160e01b600052604160045260246000fd5b600082601f83011261061057600080fd5b813567ffffffffffffffff8082111561062b5761062b6105e9565b604051601f8301601f19908116603f01168101908282118183101715610653576106536105e9565b8160405283815286602085880101111561066c57600080fd5b836020870160208301376000602085830101528094505050505092915050565b6000806040838503121561069f57600080fd5b823567ffffffffffffffff808211156106b757600080fd5b6106c3868387016105ff565b935060208501359150808211156106d957600080fd5b506106e6858286016105ff565b9150509250929050565b634e487b7160e01b600052601160045260246000fd5b60008219821115610719576107196106f0565b500190565b600181811c9082168061073257607f821691505b60208210810361075257634e487b7160e01b600052602260045260246000fd5b50919050565b8054600090600181811c908083168061077257607f831692505b6020808410820361079357634e487b7160e01b600052602260045260246000fd5b838852602088018280156107ae57600181146107bf576107ea565b60ff198716825282820197506107ea565b60008981526020902060005b878110156107e4578154848201529086019084016107cb565b83019850505b5050505050505092915050565b60408152600061080a6040830185610758565b828103602084015261081c8185610758565b95945050505050565b600060018201610837576108376106f0565b5060010190565b6000815180845260005b8181101561086457602081850181015186830182015201610848565b81811115610876576000602083870101525b50601f01601f19169290920160200192915050565b60608152600061089e606083018661083e565b82810360208401526108b0818661083e565b91505082604083015294935050505056fea2646970667358221220e1c5de941af02628d7d35739445fbcf69aa057feb753c33dc63e0bc055b397d364736f6c634300080d0033",
  "immutableReferences": {},
  "source": "pragma solidity ^0.8.0;\r\n\r\ncontract Booth{\r\n    // contestant id\r\n    uint public candidateId;\r\n    // contestant struct\r\n    struct Contestant{\r\n        string name;\r\n        string party;\r\n        uint voteCount;\r\n        address adress;\r\n    }\r\n    // voter struct\r\n    struct Voter{\r\n        bool voted;\r\n        bool exists;\r\n    }\r\n    // array of contestants\r\n    Contestant[] contestants;\r\n    // map contestant id to contestant struct\r\n    mapping (uint=>Contestant) contestant;\r\n    // map voterId to voter\r\n    mapping (address=>Voter) voter;\r\n    // Events\r\n    event ContestantAdded(string name, string party,uint id);\r\n    event Voted(string name, string party);\r\n    event Registered(address voterAddress);\r\n    // constructor\r\n    // constructor(){};\r\n    // add contestant\r\n    function addContestant(string memory name, string memory party)public{\r\n        candidateId++;\r\n        contestant[candidateId]=Contestant({\r\n            name:name,\r\n            party:party,\r\n            voteCount:0,\r\n            adress:msg.sender\r\n        });\r\n        contestants.push(contestant[candidateId]);\r\n        emit ContestantAdded(name,party,candidateId);\r\n    }\r\n    // vote\r\n    function vote(uint id)public{\r\n        require(id>0 && id<=candidateId,\"Please enter a valid id\");\r\n        require(voter[msg.sender].exists,\"voter does not exist\");\r\n        require(!voter[msg.sender].voted,\"voter has already voted\");\r\n        contestant[id].voteCount+=1;\r\n        voter[msg.sender].voted=true;\r\n        emit Voted(contestant[id].name,contestant[id].party);\r\n    }\r\n    // register voter\r\n    function registerVoter()public{\r\n        // require voter does not exist\r\n        require(!voter[msg.sender].exists,'voter already exists');\r\n        // register the voter\r\n        voter[msg.sender]=Voter({\r\n            voted:false,\r\n            exists:true\r\n        });\r\n        emit Registered(msg.sender);\r\n    }\r\n}",
  "sourcePath": "C:\\Users\\DADA\\Desktop\\Mevote\\src\\contracts\\Booth.sol",
  "compiler": {
    "name": "solc",
    "version": "0.8.13+commit.abaa5c0e.Emscripten.clang"
  },
  "schemaVersion": "3.4.5",
  "updatedAt": "2022-05-04T08:57:00.615Z",
  "networkType": "ethereum",
  "devdoc": {
    "kind": "dev",
    "methods": {},
    "version": 1
  },
  "userdoc": {
    "kind": "user",
    "methods": {},
    "version": 1
  }
}