{
  "contractName": "Booth",
  "abi": [
    {
      "anonymous": false,
      "inputs": [
        {
          "indexed": false,
          "internalType": "string",
          "name": "name",
          "type": "string"
        },
        {
          "indexed": false,
          "internalType": "string",
          "name": "party",
          "type": "string"
        },
        {
          "indexed": false,
          "internalType": "uint256",
          "name": "id",
          "type": "uint256"
        }
      ],
      "name": "ContestantAdded",
      "type": "event"
    },
    {
      "anonymous": false,
      "inputs": [
        {
          "indexed": false,
          "internalType": "string",
          "name": "name",
          "type": "string"
        },
        {
          "indexed": false,
          "internalType": "string",
          "name": "party",
          "type": "string"
        },
        {
          "indexed": false,
          "internalType": "uint256",
          "name": "votes",
          "type": "uint256"
        },
        {
          "indexed": false,
          "internalType": "address",
          "name": "adress",
          "type": "address"
        },
        {
          "indexed": false,
          "internalType": "uint256",
          "name": "id",
          "type": "uint256"
        },
        {
          "indexed": false,
          "internalType": "string",
          "name": "encryption",
          "type": "string"
        }
      ],
      "name": "ContestantDetails",
      "type": "event"
    },
    {
      "anonymous": false,
      "inputs": [
        {
          "indexed": false,
          "internalType": "address",
          "name": "voterAddress",
          "type": "address"
        }
      ],
      "name": "Registered",
      "type": "event"
    },
    {
      "anonymous": false,
      "inputs": [
        {
          "indexed": false,
          "internalType": "string",
          "name": "name",
          "type": "string"
        },
        {
          "indexed": false,
          "internalType": "string",
          "name": "party",
          "type": "string"
        },
        {
          "indexed": false,
          "internalType": "uint256",
          "name": "votes",
          "type": "uint256"
        }
      ],
      "name": "Voted",
      "type": "event"
    },
    {
      "anonymous": false,
      "inputs": [
        {
          "indexed": false,
          "internalType": "bool",
          "name": "voted",
          "type": "bool"
        },
        {
          "indexed": false,
          "internalType": "bool",
          "name": "exists",
          "type": "bool"
        }
      ],
      "name": "VoterState",
      "type": "event"
    },
    {
      "inputs": [],
      "name": "candidateId",
      "outputs": [
        {
          "internalType": "uint256",
          "name": "",
          "type": "uint256"
        }
      ],
      "stateMutability": "view",
      "type": "function",
      "constant": true
    },
    {
      "inputs": [
        {
          "internalType": "uint256",
          "name": "",
          "type": "uint256"
        }
      ],
      "name": "contestant",
      "outputs": [
        {
          "internalType": "string",
          "name": "name",
          "type": "string"
        },
        {
          "internalType": "string",
          "name": "party",
          "type": "string"
        },
        {
          "internalType": "uint256",
          "name": "voteCount",
          "type": "uint256"
        },
        {
          "internalType": "address",
          "name": "adress",
          "type": "address"
        }
      ],
      "stateMutability": "view",
      "type": "function",
      "constant": true
    },
    {
      "inputs": [
        {
          "internalType": "uint256",
          "name": "",
          "type": "uint256"
        }
      ],
      "name": "contestants",
      "outputs": [
        {
          "internalType": "string",
          "name": "name",
          "type": "string"
        },
        {
          "internalType": "string",
          "name": "party",
          "type": "string"
        },
        {
          "internalType": "uint256",
          "name": "voteCount",
          "type": "uint256"
        },
        {
          "internalType": "address",
          "name": "adress",
          "type": "address"
        }
      ],
      "stateMutability": "view",
      "type": "function",
      "constant": true
    },
    {
      "inputs": [
        {
          "internalType": "address",
          "name": "",
          "type": "address"
        }
      ],
      "name": "voter",
      "outputs": [
        {
          "internalType": "bool",
          "name": "voted",
          "type": "bool"
        },
        {
          "internalType": "bool",
          "name": "exists",
          "type": "bool"
        }
      ],
      "stateMutability": "view",
      "type": "function",
      "constant": true
    },
    {
      "inputs": [
        {
          "internalType": "string",
          "name": "name",
          "type": "string"
        },
        {
          "internalType": "string",
          "name": "party",
          "type": "string"
        }
      ],
      "name": "addContestant",
      "outputs": [],
      "stateMutability": "nonpayable",
      "type": "function"
    },
    {
      "inputs": [
        {
          "internalType": "uint256",
          "name": "id",
          "type": "uint256"
        }
      ],
      "name": "vote",
      "outputs": [],
      "stateMutability": "nonpayable",
      "type": "function"
    },
    {
      "inputs": [],
      "name": "registerVoter",
      "outputs": [],
      "stateMutability": "nonpayable",
      "type": "function"
    },
    {
      "inputs": [],
      "name": "getVotedState",
      "outputs": [],
      "stateMutability": "nonpayable",
      "type": "function"
    },
    {
      "inputs": [
        {
          "internalType": "uint256",
          "name": "id",
          "type": "uint256"
        },
        {
          "internalType": "string",
          "name": "hashes",
          "type": "string"
        }
      ],
      "name": "getVoteeDetails",
      "outputs": [],
      "stateMutability": "nonpayable",
      "type": "function"
    }
  ],
  "bytecode": "0x608060405234801561001057600080fd5b50610d1a806100206000396000f3fe608060405234801561001057600080fd5b50600436106100935760003560e01c8063c8fdc2ea11610066578063c8fdc2ea14610133578063cdac31cc14610146578063dfd50f521461014e578063e5a9d52f14610161578063ecb617d91461017457600080fd5b80630121b93f146100985780637873bc61146100ad5780639f91e6bf146100d9578063af0dbe54146100f0575b600080fd5b6100ab6100a63660046108e5565b61017c565b005b6100c06100bb3660046108e5565b61032f565b6040516100d0949392919061094b565b60405180910390f35b6100e260005481565b6040519081526020016100d0565b61011c6100fe366004610992565b60036020526000908152604090205460ff8082169161010090041682565b6040805192151583529015156020830152016100d0565b6100ab610141366004610a65565b610471565b6100ab610609565b6100c061015c3660046108e5565b61066c565b6100ab61016f366004610ac9565b61069f565b6100ab6106fd565b60008111801561018e57506000548111155b6101df5760405162461bcd60e51b815260206004820152601760248201527f506c6561736520656e74657220612076616c696420696400000000000000000060448201526064015b60405180910390fd5b33600090815260036020526040902054610100900460ff1661023a5760405162461bcd60e51b81526020600482015260146024820152731d9bdd195c88191bd95cc81b9bdd08195e1a5cdd60621b60448201526064016101d6565b3360009081526003602052604090205460ff161561029a5760405162461bcd60e51b815260206004820152601760248201527f766f7465722068617320616c726561647920766f74656400000000000000000060448201526064016101d6565b60008181526002602081905260408220018054600192906102bc908490610b1c565b9091555050336000908152600360209081526040808320805460ff19166001908117909155848452600292839052928190209182015490517f2610aa2b32505d0b372e2695cef7ff28b0127250b30a4dbbb05a86d2fb1e524e93610324939290830191610c0d565b60405180910390a150565b60026020526000908152604090208054819061034a90610b34565b80601f016020809104026020016040519081016040528092919081815260200182805461037690610b34565b80156103c35780601f10610398576101008083540402835291602001916103c3565b820191906000526020600020905b8154815290600101906020018083116103a657829003601f168201915b5050505050908060010180546103d890610b34565b80601f016020809104026020016040519081016040528092919081815260200182805461040490610b34565b80156104515780601f1061042657610100808354040283529160200191610451565b820191906000526020600020905b81548152906001019060200180831161043457829003601f168201915b5050505060028301546003909301549192916001600160a01b0316905084565b60008054908061048083610c43565b9091555050604080516080810182528381526020808201849052600082840181905233606084015280548152600282529290922081518051929391926104c992849201906107d1565b5060208281015180516104e292600185019201906107d1565b50604082810151600280840191909155606090930151600390920180546001600160a01b039093166001600160a01b03199093169290921790915560008054815260209290925281206001805480820182559252805490916004027fb10e2d527612073b26eecdfd717e6a320cf44b4afac2b0732d9fcbe2b7fa0cf601908190839061056d90610b34565b610578929190610855565b50600182018160010190805461058d90610b34565b610598929190610855565b5060028281015490820155600391820154910180546001600160a01b0319166001600160a01b039092169190911790556000546040517f3f06c37be0186362983134864f50b39e5523d52b7bbb5d584b46c0d226138db4916105fd9185918591610c5c565b60405180910390a15050565b33600090815260036020526040908190205490517fd9aafec0d93f6584826a285b9d8fbe390047d28e6b0034924993fa600539dccb916106629160ff808316926101009004169091151582521515602082015260400190565b60405180910390a1565b6001818154811061067c57600080fd5b906000526020600020906004020160009150905080600001805461034a90610b34565b60008281526002602081905260409182902090810154600382015492517fb85a105f413f36920d95aadbd1f1da51975404c7c3be0025e02c67ab936ae8f6936105fd9392600184019290916001600160a01b03169088908890610c81565b33600090815260036020526040902054610100900460ff16156107595760405162461bcd60e51b8152602060048201526014602482015273766f74657220616c72656164792065786973747360601b60448201526064016101d6565b60408051808201825260008082526001602080840191825233808452600382529285902093518454925161ffff1990931690151561ff00191617610100921515929092029190911790925591519182527f2d3734a8e47ac8316e500ac231c90a6e1848ca2285f40d07eaa52005e4b3a0e99101610662565b8280546107dd90610b34565b90600052602060002090601f0160209004810192826107ff5760008555610845565b82601f1061081857805160ff1916838001178555610845565b82800160010185558215610845579182015b8281111561084557825182559160200191906001019061082a565b506108519291506108d0565b5090565b82805461086190610b34565b90600052602060002090601f0160209004810192826108835760008555610845565b82601f106108945780548555610845565b8280016001018555821561084557600052602060002091601f016020900482015b828111156108455782548255916001019190600101906108b5565b5b8082111561085157600081556001016108d1565b6000602082840312156108f757600080fd5b5035919050565b6000815180845260005b8181101561092457602081850181015186830182015201610908565b81811115610936576000602083870101525b50601f01601f19169290920160200192915050565b60808152600061095e60808301876108fe565b828103602084015261097081876108fe565b604084019590955250506001600160a01b039190911660609091015292915050565b6000602082840312156109a457600080fd5b81356001600160a01b03811681146109bb57600080fd5b9392505050565b634e487b7160e01b600052604160045260246000fd5b600082601f8301126109e957600080fd5b813567ffffffffffffffff80821115610a0457610a046109c2565b604051601f8301601f19908116603f01168101908282118183101715610a2c57610a2c6109c2565b81604052838152866020858801011115610a4557600080fd5b836020870160208301376000602085830101528094505050505092915050565b60008060408385031215610a7857600080fd5b823567ffffffffffffffff80821115610a9057600080fd5b610a9c868387016109d8565b93506020850135915080821115610ab257600080fd5b50610abf858286016109d8565b9150509250929050565b60008060408385031215610adc57600080fd5b82359150602083013567ffffffffffffffff811115610afa57600080fd5b610abf858286016109d8565b634e487b7160e01b600052601160045260246000fd5b60008219821115610b2f57610b2f610b06565b500190565b600181811c90821680610b4857607f821691505b602082108103610b6857634e487b7160e01b600052602260045260246000fd5b50919050565b8054600090600181811c9080831680610b8857607f831692505b60208084108203610ba957634e487b7160e01b600052602260045260246000fd5b83885260208801828015610bc45760018114610bd557610c00565b60ff19871682528282019750610c00565b60008981526020902060005b87811015610bfa57815484820152908601908401610be1565b83019850505b5050505050505092915050565b606081526000610c206060830186610b6e565b8281036020840152610c328186610b6e565b915050826040830152949350505050565b600060018201610c5557610c55610b06565b5060010190565b606081526000610c6f60608301866108fe565b8281036020840152610c3281866108fe565b60c081526000610c9460c0830189610b6e565b8281036020840152610ca68189610b6e565b604084018890526001600160a01b03871660608501526080840186905283810360a08501529050610cd781856108fe565b999850505050505050505056fea26469706673582212204bec797b54749bef3b3cfbe80e22b60bc20b83ed6fd477eb29945efa45c8f3d864736f6c634300080d0033",
  "immutableReferences": {},
  "source": "// SPDX-License-Identifier: MIT\r\npragma solidity ^0.8.0;\r\n\r\ncontract Booth{\r\n    // contestant id\r\n    uint public candidateId;\r\n    // contestant struct\r\n    struct Contestant{\r\n        string name;\r\n        string party;\r\n        uint voteCount;\r\n        address adress;\r\n    }\r\n    // voter struct\r\n    struct Voter{\r\n        bool voted;\r\n        bool exists;\r\n    }\r\n    // array of contestants\r\n    Contestant[] public contestants;\r\n    // map contestant id to contestant struct\r\n    mapping (uint=>Contestant) public contestant;\r\n    // map voterId to voter\r\n    mapping (address=>Voter) public voter;\r\n    // Events\r\n    event ContestantAdded(string name, string party,uint id);\r\n    event Voted(string name, string party, uint votes);\r\n    event Registered(address voterAddress);\r\n    event VoterState(bool voted,bool exists);\r\n    event ContestantDetails(string name, string party, uint votes, address adress, uint id, string encryption);\r\n    // constructor\r\n    // constructor(){};\r\n    // add contestant\r\n    function addContestant(string memory name, string memory party)public{\r\n        candidateId++;\r\n        contestant[candidateId]=Contestant({\r\n            name:name,\r\n            party:party,\r\n            voteCount:0,\r\n            adress:msg.sender\r\n        });\r\n        contestants.push(contestant[candidateId]);\r\n        emit ContestantAdded(name,party,candidateId);\r\n    }\r\n    // vote\r\n    function vote(uint id)public{\r\n        require(id>0 && id<=candidateId,\"Please enter a valid id\");\r\n        require(voter[msg.sender].exists,\"voter does not exist\");\r\n        require(!voter[msg.sender].voted,\"voter has already voted\");\r\n        contestant[id].voteCount+=1;\r\n        voter[msg.sender].voted=true;\r\n        emit Voted(contestant[id].name,contestant[id].party,contestant[id].voteCount);\r\n    }\r\n    // register voter\r\n    function registerVoter()public{\r\n        // require voter does not exist\r\n        require(!voter[msg.sender].exists,'voter already exists');\r\n        // register the voter\r\n        voter[msg.sender]=Voter({\r\n            voted:false,\r\n            exists:true\r\n        });\r\n        emit Registered(msg.sender);\r\n    }\r\n    function getVotedState()public{\r\n        emit VoterState(voter[msg.sender].voted, voter[msg.sender].exists);\r\n    }\r\n    function getVoteeDetails(uint id,string memory hashes)public{\r\n        emit ContestantDetails(contestant[id].name,contestant[id].party,contestant[id].voteCount,contestant[id].adress,id,hashes);\r\n    }\r\n}",
  "sourcePath": "C:\\Users\\DADA\\Desktop\\Mevote\\src\\contracts\\Booth.sol",
  "compiler": {
    "name": "solc",
    "version": "0.8.13+commit.abaa5c0e.Emscripten.clang"
  },
  "schemaVersion": "3.4.5",
  "updatedAt": "2022-05-12T13:39:00.317Z",
  "networkType": "ethereum",
  "devdoc": {
    "kind": "dev",
    "methods": {},
    "version": 1
  },
  "userdoc": {
    "kind": "user",
    "methods": {},
    "version": 1
  }
}