{
  "contractName": "Booth",
  "abi": [
    {
      "anonymous": false,
      "inputs": [
        {
          "indexed": false,
          "internalType": "string",
          "name": "name",
          "type": "string"
        },
        {
          "indexed": false,
          "internalType": "string",
          "name": "party",
          "type": "string"
        },
        {
          "indexed": false,
          "internalType": "uint256",
          "name": "id",
          "type": "uint256"
        }
      ],
      "name": "ContestantAdded",
      "type": "event"
    },
    {
      "anonymous": false,
      "inputs": [
        {
          "indexed": false,
          "internalType": "address",
          "name": "voterAddress",
          "type": "address"
        }
      ],
      "name": "Registered",
      "type": "event"
    },
    {
      "anonymous": false,
      "inputs": [
        {
          "indexed": false,
          "internalType": "string",
          "name": "name",
          "type": "string"
        },
        {
          "indexed": false,
          "internalType": "string",
          "name": "party",
          "type": "string"
        }
      ],
      "name": "Voted",
      "type": "event"
    },
    {
      "inputs": [],
      "name": "candidateId",
      "outputs": [
        {
          "internalType": "uint256",
          "name": "",
          "type": "uint256"
        }
      ],
      "stateMutability": "view",
      "type": "function",
      "constant": true
    },
    {
      "inputs": [
        {
          "internalType": "uint256",
          "name": "",
          "type": "uint256"
        }
      ],
      "name": "contestant",
      "outputs": [
        {
          "internalType": "string",
          "name": "name",
          "type": "string"
        },
        {
          "internalType": "string",
          "name": "party",
          "type": "string"
        },
        {
          "internalType": "uint256",
          "name": "voteCount",
          "type": "uint256"
        },
        {
          "internalType": "address",
          "name": "adress",
          "type": "address"
        }
      ],
      "stateMutability": "view",
      "type": "function",
      "constant": true
    },
    {
      "inputs": [
        {
          "internalType": "address",
          "name": "",
          "type": "address"
        }
      ],
      "name": "voter",
      "outputs": [
        {
          "internalType": "bool",
          "name": "voted",
          "type": "bool"
        },
        {
          "internalType": "bool",
          "name": "exists",
          "type": "bool"
        }
      ],
      "stateMutability": "view",
      "type": "function",
      "constant": true
    },
    {
      "inputs": [
        {
          "internalType": "string",
          "name": "name",
          "type": "string"
        },
        {
          "internalType": "string",
          "name": "party",
          "type": "string"
        }
      ],
      "name": "addContestant",
      "outputs": [],
      "stateMutability": "nonpayable",
      "type": "function"
    },
    {
      "inputs": [
        {
          "internalType": "uint256",
          "name": "id",
          "type": "uint256"
        }
      ],
      "name": "vote",
      "outputs": [],
      "stateMutability": "nonpayable",
      "type": "function"
    },
    {
      "inputs": [],
      "name": "registerVoter",
      "outputs": [],
      "stateMutability": "nonpayable",
      "type": "function"
    }
  ],
  "bytecode": "0x608060405234801561001057600080fd5b50610b31806100206000396000f3fe608060405234801561001057600080fd5b50600436106100625760003560e01c80630121b93f146100675780637873bc611461007c5780639f91e6bf146100a8578063af0dbe54146100bf578063c8fdc2ea14610102578063ecb617d914610115575b600080fd5b61007a610075366004610793565b61011d565b005b61008f61008a366004610793565b6102cc565b60405161009f94939291906107f9565b60405180910390f35b6100b160005481565b60405190815260200161009f565b6100eb6100cd366004610840565b60036020526000908152604090205460ff8082169161010090041682565b60408051921515835290151560208301520161009f565b61007a610110366004610913565b61040e565b61007a6105a6565b60008111801561012f57506000548111155b6101805760405162461bcd60e51b815260206004820152601760248201527f506c6561736520656e74657220612076616c696420696400000000000000000060448201526064015b60405180910390fd5b33600090815260036020526040902054610100900460ff166101db5760405162461bcd60e51b81526020600482015260146024820152731d9bdd195c88191bd95cc81b9bdd08195e1a5cdd60621b6044820152606401610177565b3360009081526003602052604090205460ff161561023b5760405162461bcd60e51b815260206004820152601760248201527f766f7465722068617320616c726561647920766f7465640000000000000000006044820152606401610177565b600081815260026020819052604082200180546001929061025d90849061098d565b9091555050336000908152600360209081526040808320805460ff1916600190811790915584845260029092529182902091517f1fe200859f80731381e281cec03b60a1233f1b10ef1ecc058b1246c9b16f1a48926102c192909190820190610a7e565b60405180910390a150565b6002602052600090815260409020805481906102e7906109a5565b80601f0160208091040260200160405190810160405280929190818152602001828054610313906109a5565b80156103605780601f1061033557610100808354040283529160200191610360565b820191906000526020600020905b81548152906001019060200180831161034357829003601f168201915b505050505090806001018054610375906109a5565b80601f01602080910402602001604051908101604052809291908181526020018280546103a1906109a5565b80156103ee5780601f106103c3576101008083540402835291602001916103ee565b820191906000526020600020905b8154815290600101906020018083116103d157829003601f168201915b5050505060028301546003909301549192916001600160a01b0316905084565b60008054908061041d83610aac565b909155505060408051608081018252838152602080820184905260008284018190523360608401528054815260028252929092208151805192939192610466928492019061067f565b50602082810151805161047f926001850192019061067f565b50604082810151600280840191909155606090930151600390920180546001600160a01b039093166001600160a01b03199093169290921790915560008054815260209290925281206001805480820182559252805490916004027fb10e2d527612073b26eecdfd717e6a320cf44b4afac2b0732d9fcbe2b7fa0cf601908190839061050a906109a5565b610515929190610703565b50600182018160010190805461052a906109a5565b610535929190610703565b5060028281015490820155600391820154910180546001600160a01b0319166001600160a01b039092169190911790556000546040517f3f06c37be0186362983134864f50b39e5523d52b7bbb5d584b46c0d226138db49161059a9185918591610ac5565b60405180910390a15050565b33600090815260036020526040902054610100900460ff16156106025760405162461bcd60e51b8152602060048201526014602482015273766f74657220616c72656164792065786973747360601b6044820152606401610177565b60408051808201825260008082526001602080840191825233808452600382529285902093518454925161ffff1990931690151561ff00191617610100921515929092029190911790925591519182527f2d3734a8e47ac8316e500ac231c90a6e1848ca2285f40d07eaa52005e4b3a0e9910160405180910390a1565b82805461068b906109a5565b90600052602060002090601f0160209004810192826106ad57600085556106f3565b82601f106106c657805160ff19168380011785556106f3565b828001600101855582156106f3579182015b828111156106f35782518255916020019190600101906106d8565b506106ff92915061077e565b5090565b82805461070f906109a5565b90600052602060002090601f01602090048101928261073157600085556106f3565b82601f1061074257805485556106f3565b828001600101855582156106f357600052602060002091601f016020900482015b828111156106f3578254825591600101919060010190610763565b5b808211156106ff576000815560010161077f565b6000602082840312156107a557600080fd5b5035919050565b6000815180845260005b818110156107d2576020818501810151868301820152016107b6565b818111156107e4576000602083870101525b50601f01601f19169290920160200192915050565b60808152600061080c60808301876107ac565b828103602084015261081e81876107ac565b604084019590955250506001600160a01b039190911660609091015292915050565b60006020828403121561085257600080fd5b81356001600160a01b038116811461086957600080fd5b9392505050565b634e487b7160e01b600052604160045260246000fd5b600082601f83011261089757600080fd5b813567ffffffffffffffff808211156108b2576108b2610870565b604051601f8301601f19908116603f011681019082821181831017156108da576108da610870565b816040528381528660208588010111156108f357600080fd5b836020870160208301376000602085830101528094505050505092915050565b6000806040838503121561092657600080fd5b823567ffffffffffffffff8082111561093e57600080fd5b61094a86838701610886565b9350602085013591508082111561096057600080fd5b5061096d85828601610886565b9150509250929050565b634e487b7160e01b600052601160045260246000fd5b600082198211156109a0576109a0610977565b500190565b600181811c908216806109b957607f821691505b6020821081036109d957634e487b7160e01b600052602260045260246000fd5b50919050565b8054600090600181811c90808316806109f957607f831692505b60208084108203610a1a57634e487b7160e01b600052602260045260246000fd5b83885260208801828015610a355760018114610a4657610a71565b60ff19871682528282019750610a71565b60008981526020902060005b87811015610a6b57815484820152908601908401610a52565b83019850505b5050505050505092915050565b604081526000610a9160408301856109df565b8281036020840152610aa381856109df565b95945050505050565b600060018201610abe57610abe610977565b5060010190565b606081526000610ad860608301866107ac565b8281036020840152610aea81866107ac565b91505082604083015294935050505056fea2646970667358221220d2a9c7af96ff10e3c45f896648ce7846fcf17bee2d416b091b4ec7422198604064736f6c634300080d0033",
  "immutableReferences": {},
  "source": "pragma solidity ^0.8.0;\r\n\r\ncontract Booth{\r\n    // contestant id\r\n    uint public candidateId;\r\n    // contestant struct\r\n    struct Contestant{\r\n        string name;\r\n        string party;\r\n        uint voteCount;\r\n        address adress;\r\n    }\r\n    // voter struct\r\n    struct Voter{\r\n        bool voted;\r\n        bool exists;\r\n    }\r\n    // array of contestants\r\n    Contestant[] contestants;\r\n    // map contestant id to contestant struct\r\n    mapping (uint=>Contestant) public contestant;\r\n    // map voterId to voter\r\n    mapping (address=>Voter) public voter;\r\n    // Events\r\n    event ContestantAdded(string name, string party,uint id);\r\n    event Voted(string name, string party);\r\n    event Registered(address voterAddress);\r\n    // constructor\r\n    // constructor(){};\r\n    // add contestant\r\n    function addContestant(string memory name, string memory party)public{\r\n        candidateId++;\r\n        contestant[candidateId]=Contestant({\r\n            name:name,\r\n            party:party,\r\n            voteCount:0,\r\n            adress:msg.sender\r\n        });\r\n        contestants.push(contestant[candidateId]);\r\n        emit ContestantAdded(name,party,candidateId);\r\n    }\r\n    // vote\r\n    function vote(uint id)public{\r\n        require(id>0 && id<=candidateId,\"Please enter a valid id\");\r\n        require(voter[msg.sender].exists,\"voter does not exist\");\r\n        require(!voter[msg.sender].voted,\"voter has already voted\");\r\n        contestant[id].voteCount+=1;\r\n        voter[msg.sender].voted=true;\r\n        emit Voted(contestant[id].name,contestant[id].party);\r\n    }\r\n    // register voter\r\n    function registerVoter()public{\r\n        // require voter does not exist\r\n        require(!voter[msg.sender].exists,'voter already exists');\r\n        // register the voter\r\n        voter[msg.sender]=Voter({\r\n            voted:false,\r\n            exists:true\r\n        });\r\n        emit Registered(msg.sender);\r\n    }\r\n}",
  "sourcePath": "C:\\Users\\DADA\\Desktop\\Mevote\\src\\contracts\\Booth.sol",
  "compiler": {
    "name": "solc",
    "version": "0.8.13+commit.abaa5c0e.Emscripten.clang"
  },
  "schemaVersion": "3.4.5",
  "updatedAt": "2022-05-06T15:59:12.350Z",
  "networkType": "ethereum",
  "devdoc": {
    "kind": "dev",
    "methods": {},
    "version": 1
  },
  "userdoc": {
    "kind": "user",
    "methods": {},
    "version": 1
  }
}