{
  "contractName": "Booth",
  "abi": [
    {
      "anonymous": false,
      "inputs": [
        {
          "indexed": false,
          "internalType": "string",
          "name": "name",
          "type": "string"
        },
        {
          "indexed": false,
          "internalType": "string",
          "name": "party",
          "type": "string"
        },
        {
          "indexed": false,
          "internalType": "uint256",
          "name": "id",
          "type": "uint256"
        }
      ],
      "name": "ContestantAdded",
      "type": "event"
    },
    {
      "anonymous": false,
      "inputs": [
        {
          "indexed": false,
          "internalType": "address",
          "name": "voterAddress",
          "type": "address"
        }
      ],
      "name": "Registered",
      "type": "event"
    },
    {
      "anonymous": false,
      "inputs": [
        {
          "indexed": false,
          "internalType": "string",
          "name": "name",
          "type": "string"
        },
        {
          "indexed": false,
          "internalType": "string",
          "name": "party",
          "type": "string"
        }
      ],
      "name": "Voted",
      "type": "event"
    },
    {
      "anonymous": false,
      "inputs": [
        {
          "indexed": false,
          "internalType": "bool",
          "name": "voted",
          "type": "bool"
        },
        {
          "indexed": false,
          "internalType": "bool",
          "name": "exists",
          "type": "bool"
        }
      ],
      "name": "VoterState",
      "type": "event"
    },
    {
      "inputs": [],
      "name": "candidateId",
      "outputs": [
        {
          "internalType": "uint256",
          "name": "",
          "type": "uint256"
        }
      ],
      "stateMutability": "view",
      "type": "function",
      "constant": true
    },
    {
      "inputs": [
        {
          "internalType": "uint256",
          "name": "",
          "type": "uint256"
        }
      ],
      "name": "contestant",
      "outputs": [
        {
          "internalType": "string",
          "name": "name",
          "type": "string"
        },
        {
          "internalType": "string",
          "name": "party",
          "type": "string"
        },
        {
          "internalType": "uint256",
          "name": "voteCount",
          "type": "uint256"
        },
        {
          "internalType": "address",
          "name": "adress",
          "type": "address"
        }
      ],
      "stateMutability": "view",
      "type": "function",
      "constant": true
    },
    {
      "inputs": [
        {
          "internalType": "uint256",
          "name": "",
          "type": "uint256"
        }
      ],
      "name": "contestants",
      "outputs": [
        {
          "internalType": "string",
          "name": "name",
          "type": "string"
        },
        {
          "internalType": "string",
          "name": "party",
          "type": "string"
        },
        {
          "internalType": "uint256",
          "name": "voteCount",
          "type": "uint256"
        },
        {
          "internalType": "address",
          "name": "adress",
          "type": "address"
        }
      ],
      "stateMutability": "view",
      "type": "function",
      "constant": true
    },
    {
      "inputs": [
        {
          "internalType": "address",
          "name": "",
          "type": "address"
        }
      ],
      "name": "voter",
      "outputs": [
        {
          "internalType": "bool",
          "name": "voted",
          "type": "bool"
        },
        {
          "internalType": "bool",
          "name": "exists",
          "type": "bool"
        }
      ],
      "stateMutability": "view",
      "type": "function",
      "constant": true
    },
    {
      "inputs": [
        {
          "internalType": "string",
          "name": "name",
          "type": "string"
        },
        {
          "internalType": "string",
          "name": "party",
          "type": "string"
        }
      ],
      "name": "addContestant",
      "outputs": [],
      "stateMutability": "nonpayable",
      "type": "function"
    },
    {
      "inputs": [
        {
          "internalType": "uint256",
          "name": "id",
          "type": "uint256"
        }
      ],
      "name": "vote",
      "outputs": [],
      "stateMutability": "nonpayable",
      "type": "function"
    },
    {
      "inputs": [],
      "name": "registerVoter",
      "outputs": [],
      "stateMutability": "nonpayable",
      "type": "function"
    },
    {
      "inputs": [],
      "name": "getVotedState",
      "outputs": [],
      "stateMutability": "nonpayable",
      "type": "function"
    }
  ],
  "bytecode": "0x608060405234801561001057600080fd5b50610c03806100206000396000f3fe608060405234801561001057600080fd5b50600436106100885760003560e01c8063c8fdc2ea1161005b578063c8fdc2ea14610128578063cdac31cc1461013b578063dfd50f5214610143578063ecb617d91461015657600080fd5b80630121b93f1461008d5780637873bc61146100a25780639f91e6bf146100ce578063af0dbe54146100e5575b600080fd5b6100a061009b366004610865565b61015e565b005b6100b56100b0366004610865565b61030d565b6040516100c594939291906108cb565b60405180910390f35b6100d760005481565b6040519081526020016100c5565b6101116100f3366004610912565b60036020526000908152604090205460ff8082169161010090041682565b6040805192151583529015156020830152016100c5565b6100a06101363660046109e5565b61044f565b6100a06105e7565b6100b5610151366004610865565b61064a565b6100a061067d565b60008111801561017057506000548111155b6101c15760405162461bcd60e51b815260206004820152601760248201527f506c6561736520656e74657220612076616c696420696400000000000000000060448201526064015b60405180910390fd5b33600090815260036020526040902054610100900460ff1661021c5760405162461bcd60e51b81526020600482015260146024820152731d9bdd195c88191bd95cc81b9bdd08195e1a5cdd60621b60448201526064016101b8565b3360009081526003602052604090205460ff161561027c5760405162461bcd60e51b815260206004820152601760248201527f766f7465722068617320616c726561647920766f74656400000000000000000060448201526064016101b8565b600081815260026020819052604082200180546001929061029e908490610a5f565b9091555050336000908152600360209081526040808320805460ff1916600190811790915584845260029092529182902091517f1fe200859f80731381e281cec03b60a1233f1b10ef1ecc058b1246c9b16f1a489261030292909190820190610b50565b60405180910390a150565b60026020526000908152604090208054819061032890610a77565b80601f016020809104026020016040519081016040528092919081815260200182805461035490610a77565b80156103a15780601f10610376576101008083540402835291602001916103a1565b820191906000526020600020905b81548152906001019060200180831161038457829003601f168201915b5050505050908060010180546103b690610a77565b80601f01602080910402602001604051908101604052809291908181526020018280546103e290610a77565b801561042f5780601f106104045761010080835404028352916020019161042f565b820191906000526020600020905b81548152906001019060200180831161041257829003601f168201915b5050505060028301546003909301549192916001600160a01b0316905084565b60008054908061045e83610b7e565b9091555050604080516080810182528381526020808201849052600082840181905233606084015280548152600282529290922081518051929391926104a79284920190610751565b5060208281015180516104c09260018501920190610751565b50604082810151600280840191909155606090930151600390920180546001600160a01b039093166001600160a01b03199093169290921790915560008054815260209290925281206001805480820182559252805490916004027fb10e2d527612073b26eecdfd717e6a320cf44b4afac2b0732d9fcbe2b7fa0cf601908190839061054b90610a77565b6105569291906107d5565b50600182018160010190805461056b90610a77565b6105769291906107d5565b5060028281015490820155600391820154910180546001600160a01b0319166001600160a01b039092169190911790556000546040517f3f06c37be0186362983134864f50b39e5523d52b7bbb5d584b46c0d226138db4916105db9185918591610b97565b60405180910390a15050565b33600090815260036020526040908190205490517fd9aafec0d93f6584826a285b9d8fbe390047d28e6b0034924993fa600539dccb916106409160ff808316926101009004169091151582521515602082015260400190565b60405180910390a1565b6001818154811061065a57600080fd5b906000526020600020906004020160009150905080600001805461032890610a77565b33600090815260036020526040902054610100900460ff16156106d95760405162461bcd60e51b8152602060048201526014602482015273766f74657220616c72656164792065786973747360601b60448201526064016101b8565b60408051808201825260008082526001602080840191825233808452600382529285902093518454925161ffff1990931690151561ff00191617610100921515929092029190911790925591519182527f2d3734a8e47ac8316e500ac231c90a6e1848ca2285f40d07eaa52005e4b3a0e99101610640565b82805461075d90610a77565b90600052602060002090601f01602090048101928261077f57600085556107c5565b82601f1061079857805160ff19168380011785556107c5565b828001600101855582156107c5579182015b828111156107c55782518255916020019190600101906107aa565b506107d1929150610850565b5090565b8280546107e190610a77565b90600052602060002090601f01602090048101928261080357600085556107c5565b82601f1061081457805485556107c5565b828001600101855582156107c557600052602060002091601f016020900482015b828111156107c5578254825591600101919060010190610835565b5b808211156107d15760008155600101610851565b60006020828403121561087757600080fd5b5035919050565b6000815180845260005b818110156108a457602081850181015186830182015201610888565b818111156108b6576000602083870101525b50601f01601f19169290920160200192915050565b6080815260006108de608083018761087e565b82810360208401526108f0818761087e565b604084019590955250506001600160a01b039190911660609091015292915050565b60006020828403121561092457600080fd5b81356001600160a01b038116811461093b57600080fd5b9392505050565b634e487b7160e01b600052604160045260246000fd5b600082601f83011261096957600080fd5b813567ffffffffffffffff8082111561098457610984610942565b604051601f8301601f19908116603f011681019082821181831017156109ac576109ac610942565b816040528381528660208588010111156109c557600080fd5b836020870160208301376000602085830101528094505050505092915050565b600080604083850312156109f857600080fd5b823567ffffffffffffffff80821115610a1057600080fd5b610a1c86838701610958565b93506020850135915080821115610a3257600080fd5b50610a3f85828601610958565b9150509250929050565b634e487b7160e01b600052601160045260246000fd5b60008219821115610a7257610a72610a49565b500190565b600181811c90821680610a8b57607f821691505b602082108103610aab57634e487b7160e01b600052602260045260246000fd5b50919050565b8054600090600181811c9080831680610acb57607f831692505b60208084108203610aec57634e487b7160e01b600052602260045260246000fd5b83885260208801828015610b075760018114610b1857610b43565b60ff19871682528282019750610b43565b60008981526020902060005b87811015610b3d57815484820152908601908401610b24565b83019850505b5050505050505092915050565b604081526000610b636040830185610ab1565b8281036020840152610b758185610ab1565b95945050505050565b600060018201610b9057610b90610a49565b5060010190565b606081526000610baa606083018661087e565b8281036020840152610bbc818661087e565b91505082604083015294935050505056fea2646970667358221220560123b9e6e4413feef1c158751894e75278e2f88e3df14590fcbd32727a3ab264736f6c634300080d0033",
  "immutableReferences": {},
  "source": "// SPDX-License-Identifier: MIT\r\npragma solidity ^0.8.0;\r\n\r\ncontract Booth{\r\n    // contestant id\r\n    uint public candidateId;\r\n    // contestant struct\r\n    struct Contestant{\r\n        string name;\r\n        string party;\r\n        uint voteCount;\r\n        address adress;\r\n    }\r\n    // voter struct\r\n    struct Voter{\r\n        bool voted;\r\n        bool exists;\r\n    }\r\n    // array of contestants\r\n    Contestant[] public contestants;\r\n    // map contestant id to contestant struct\r\n    mapping (uint=>Contestant) public contestant;\r\n    // map voterId to voter\r\n    mapping (address=>Voter) public voter;\r\n    // Events\r\n    event ContestantAdded(string name, string party,uint id);\r\n    event Voted(string name, string party);\r\n    event Registered(address voterAddress);\r\n    event VoterState(bool voted,bool exists);\r\n    // constructor\r\n    // constructor(){};\r\n    // add contestant\r\n    function addContestant(string memory name, string memory party)public{\r\n        candidateId++;\r\n        contestant[candidateId]=Contestant({\r\n            name:name,\r\n            party:party,\r\n            voteCount:0,\r\n            adress:msg.sender\r\n        });\r\n        contestants.push(contestant[candidateId]);\r\n        emit ContestantAdded(name,party,candidateId);\r\n    }\r\n    // vote\r\n    function vote(uint id)public{\r\n        require(id>0 && id<=candidateId,\"Please enter a valid id\");\r\n        require(voter[msg.sender].exists,\"voter does not exist\");\r\n        require(!voter[msg.sender].voted,\"voter has already voted\");\r\n        contestant[id].voteCount+=1;\r\n        voter[msg.sender].voted=true;\r\n        emit Voted(contestant[id].name,contestant[id].party);\r\n    }\r\n    // register voter\r\n    function registerVoter()public{\r\n        // require voter does not exist\r\n        require(!voter[msg.sender].exists,'voter already exists');\r\n        // register the voter\r\n        voter[msg.sender]=Voter({\r\n            voted:false,\r\n            exists:true\r\n        });\r\n        emit Registered(msg.sender);\r\n    }\r\n    function getVotedState()public{\r\n        emit VoterState(voter[msg.sender].voted, voter[msg.sender].exists);\r\n    }\r\n}",
  "sourcePath": "C:\\Users\\DADA\\Desktop\\Mevote\\src\\contracts\\Booth.sol",
  "compiler": {
    "name": "solc",
    "version": "0.8.13+commit.abaa5c0e.Emscripten.clang"
  },
  "schemaVersion": "3.4.5",
  "updatedAt": "2022-05-09T14:30:05.064Z",
  "networkType": "ethereum",
  "devdoc": {
    "kind": "dev",
    "methods": {},
    "version": 1
  },
  "userdoc": {
    "kind": "user",
    "methods": {},
    "version": 1
  }
}