{
  "contractName": "Booth",
  "abi": [
    {
      "anonymous": false,
      "inputs": [
        {
          "indexed": false,
          "internalType": "string",
          "name": "name",
          "type": "string"
        },
        {
          "indexed": false,
          "internalType": "string",
          "name": "party",
          "type": "string"
        },
        {
          "indexed": false,
          "internalType": "uint256",
          "name": "id",
          "type": "uint256"
        }
      ],
      "name": "ContestantAdded",
      "type": "event"
    },
    {
      "anonymous": false,
      "inputs": [
        {
          "indexed": true,
          "internalType": "string",
          "name": "encryption",
          "type": "string"
        },
        {
          "indexed": true,
          "internalType": "string",
          "name": "name",
          "type": "string"
        },
        {
          "indexed": false,
          "internalType": "string",
          "name": "party",
          "type": "string"
        },
        {
          "indexed": false,
          "internalType": "uint256",
          "name": "votes",
          "type": "uint256"
        },
        {
          "indexed": false,
          "internalType": "address",
          "name": "adress",
          "type": "address"
        },
        {
          "indexed": false,
          "internalType": "uint256",
          "name": "id",
          "type": "uint256"
        }
      ],
      "name": "ContestantDetails",
      "type": "event"
    },
    {
      "anonymous": false,
      "inputs": [
        {
          "indexed": false,
          "internalType": "address",
          "name": "voterAddress",
          "type": "address"
        }
      ],
      "name": "Registered",
      "type": "event"
    },
    {
      "anonymous": false,
      "inputs": [
        {
          "indexed": false,
          "internalType": "string",
          "name": "name",
          "type": "string"
        },
        {
          "indexed": false,
          "internalType": "string",
          "name": "party",
          "type": "string"
        },
        {
          "indexed": false,
          "internalType": "uint256",
          "name": "votes",
          "type": "uint256"
        }
      ],
      "name": "Voted",
      "type": "event"
    },
    {
      "anonymous": false,
      "inputs": [
        {
          "indexed": false,
          "internalType": "bool",
          "name": "voted",
          "type": "bool"
        },
        {
          "indexed": false,
          "internalType": "bool",
          "name": "exists",
          "type": "bool"
        }
      ],
      "name": "VoterState",
      "type": "event"
    },
    {
      "inputs": [],
      "name": "candidateId",
      "outputs": [
        {
          "internalType": "uint256",
          "name": "",
          "type": "uint256"
        }
      ],
      "stateMutability": "view",
      "type": "function",
      "constant": true
    },
    {
      "inputs": [
        {
          "internalType": "uint256",
          "name": "",
          "type": "uint256"
        }
      ],
      "name": "contestant",
      "outputs": [
        {
          "internalType": "string",
          "name": "name",
          "type": "string"
        },
        {
          "internalType": "string",
          "name": "party",
          "type": "string"
        },
        {
          "internalType": "uint256",
          "name": "voteCount",
          "type": "uint256"
        },
        {
          "internalType": "address",
          "name": "adress",
          "type": "address"
        }
      ],
      "stateMutability": "view",
      "type": "function",
      "constant": true
    },
    {
      "inputs": [
        {
          "internalType": "uint256",
          "name": "",
          "type": "uint256"
        }
      ],
      "name": "contestants",
      "outputs": [
        {
          "internalType": "string",
          "name": "name",
          "type": "string"
        },
        {
          "internalType": "string",
          "name": "party",
          "type": "string"
        },
        {
          "internalType": "uint256",
          "name": "voteCount",
          "type": "uint256"
        },
        {
          "internalType": "address",
          "name": "adress",
          "type": "address"
        }
      ],
      "stateMutability": "view",
      "type": "function",
      "constant": true
    },
    {
      "inputs": [
        {
          "internalType": "address",
          "name": "",
          "type": "address"
        }
      ],
      "name": "voter",
      "outputs": [
        {
          "internalType": "bool",
          "name": "voted",
          "type": "bool"
        },
        {
          "internalType": "bool",
          "name": "exists",
          "type": "bool"
        }
      ],
      "stateMutability": "view",
      "type": "function",
      "constant": true
    },
    {
      "inputs": [
        {
          "internalType": "string",
          "name": "name",
          "type": "string"
        },
        {
          "internalType": "string",
          "name": "party",
          "type": "string"
        }
      ],
      "name": "addContestant",
      "outputs": [],
      "stateMutability": "nonpayable",
      "type": "function"
    },
    {
      "inputs": [
        {
          "internalType": "uint256",
          "name": "id",
          "type": "uint256"
        }
      ],
      "name": "vote",
      "outputs": [],
      "stateMutability": "nonpayable",
      "type": "function"
    },
    {
      "inputs": [],
      "name": "registerVoter",
      "outputs": [],
      "stateMutability": "nonpayable",
      "type": "function"
    },
    {
      "inputs": [],
      "name": "getVotedState",
      "outputs": [],
      "stateMutability": "nonpayable",
      "type": "function"
    },
    {
      "inputs": [
        {
          "internalType": "uint256",
          "name": "id",
          "type": "uint256"
        },
        {
          "internalType": "string",
          "name": "hashes",
          "type": "string"
        }
      ],
      "name": "getVoteeDetails",
      "outputs": [],
      "stateMutability": "nonpayable",
      "type": "function"
    }
  ],
  "bytecode": "0x608060405234801561001057600080fd5b50610da8806100206000396000f3fe608060405234801561001057600080fd5b50600436106100935760003560e01c8063c8fdc2ea11610066578063c8fdc2ea14610133578063cdac31cc14610146578063dfd50f521461014e578063e5a9d52f14610161578063ecb617d91461017457600080fd5b80630121b93f146100985780637873bc61146100ad5780639f91e6bf146100d9578063af0dbe54146100f0575b600080fd5b6100ab6100a6366004610929565b61017c565b005b6100c06100bb366004610929565b61032f565b6040516100d0949392919061099e565b60405180910390f35b6100e260005481565b6040519081526020016100d0565b61011c6100fe3660046109e5565b60036020526000908152604090205460ff8082169161010090041682565b6040805192151583529015156020830152016100d0565b6100ab610141366004610ab8565b610471565b6100ab610609565b6100c061015c366004610929565b61066c565b6100ab61016f366004610b1c565b61069f565b6100ab610741565b60008111801561018e57506000548111155b6101df5760405162461bcd60e51b815260206004820152601760248201527f506c6561736520656e74657220612076616c696420696400000000000000000060448201526064015b60405180910390fd5b33600090815260036020526040902054610100900460ff1661023a5760405162461bcd60e51b81526020600482015260146024820152731d9bdd195c88191bd95cc81b9bdd08195e1a5cdd60621b60448201526064016101d6565b3360009081526003602052604090205460ff161561029a5760405162461bcd60e51b815260206004820152601760248201527f766f7465722068617320616c726561647920766f74656400000000000000000060448201526064016101d6565b60008181526002602081905260408220018054600192906102bc908490610b6f565b9091555050336000908152600360209081526040808320805460ff19166001908117909155848452600292839052928190209182015490517f2610aa2b32505d0b372e2695cef7ff28b0127250b30a4dbbb05a86d2fb1e524e93610324939290830191610c38565b60405180910390a150565b60026020526000908152604090208054819061034a90610b87565b80601f016020809104026020016040519081016040528092919081815260200182805461037690610b87565b80156103c35780601f10610398576101008083540402835291602001916103c3565b820191906000526020600020905b8154815290600101906020018083116103a657829003601f168201915b5050505050908060010180546103d890610b87565b80601f016020809104026020016040519081016040528092919081815260200182805461040490610b87565b80156104515780601f1061042657610100808354040283529160200191610451565b820191906000526020600020905b81548152906001019060200180831161043457829003601f168201915b5050505060028301546003909301549192916001600160a01b0316905084565b60008054908061048083610c6e565b9091555050604080516080810182528381526020808201849052600082840181905233606084015280548152600282529290922081518051929391926104c99284920190610815565b5060208281015180516104e29260018501920190610815565b50604082810151600280840191909155606090930151600390920180546001600160a01b039093166001600160a01b03199093169290921790915560008054815260209290925281206001805480820182559252805490916004027fb10e2d527612073b26eecdfd717e6a320cf44b4afac2b0732d9fcbe2b7fa0cf601908190839061056d90610b87565b610578929190610899565b50600182018160010190805461058d90610b87565b610598929190610899565b5060028281015490820155600391820154910180546001600160a01b0319166001600160a01b039092169190911790556000546040517f3f06c37be0186362983134864f50b39e5523d52b7bbb5d584b46c0d226138db4916105fd9185918591610c87565b60405180910390a15050565b33600090815260036020526040908190205490517fd9aafec0d93f6584826a285b9d8fbe390047d28e6b0034924993fa600539dccb916106629160ff808316926101009004169091151582521515602082015260400190565b60405180910390a1565b6001818154811061067c57600080fd5b906000526020600020906004020160009150905080600001805461034a90610b87565b6000828152600260205260409081902090516106bb9190610cac565b6040518091039020816040516106d19190610d1e565b6040805191829003822060008681526002602081905292902091820154600383015491937f856dbec37e45d48c8dd993719f2cd00a623d423c4fe0074f2ae03c837e00cfc49361073593600190910192916001600160a01b03909116908990610d3a565b60405180910390a35050565b33600090815260036020526040902054610100900460ff161561079d5760405162461bcd60e51b8152602060048201526014602482015273766f74657220616c72656164792065786973747360601b60448201526064016101d6565b60408051808201825260008082526001602080840191825233808452600382529285902093518454925161ffff1990931690151561ff00191617610100921515929092029190911790925591519182527f2d3734a8e47ac8316e500ac231c90a6e1848ca2285f40d07eaa52005e4b3a0e99101610662565b82805461082190610b87565b90600052602060002090601f0160209004810192826108435760008555610889565b82601f1061085c57805160ff1916838001178555610889565b82800160010185558215610889579182015b8281111561088957825182559160200191906001019061086e565b50610895929150610914565b5090565b8280546108a590610b87565b90600052602060002090601f0160209004810192826108c75760008555610889565b82601f106108d85780548555610889565b8280016001018555821561088957600052602060002091601f016020900482015b828111156108895782548255916001019190600101906108f9565b5b808211156108955760008155600101610915565b60006020828403121561093b57600080fd5b5035919050565b60005b8381101561095d578181015183820152602001610945565b8381111561096c576000848401525b50505050565b6000815180845261098a816020860160208601610942565b601f01601f19169290920160200192915050565b6080815260006109b16080830187610972565b82810360208401526109c38187610972565b604084019590955250506001600160a01b039190911660609091015292915050565b6000602082840312156109f757600080fd5b81356001600160a01b0381168114610a0e57600080fd5b9392505050565b634e487b7160e01b600052604160045260246000fd5b600082601f830112610a3c57600080fd5b813567ffffffffffffffff80821115610a5757610a57610a15565b604051601f8301601f19908116603f01168101908282118183101715610a7f57610a7f610a15565b81604052838152866020858801011115610a9857600080fd5b836020870160208301376000602085830101528094505050505092915050565b60008060408385031215610acb57600080fd5b823567ffffffffffffffff80821115610ae357600080fd5b610aef86838701610a2b565b93506020850135915080821115610b0557600080fd5b50610b1285828601610a2b565b9150509250929050565b60008060408385031215610b2f57600080fd5b82359150602083013567ffffffffffffffff811115610b4d57600080fd5b610b1285828601610a2b565b634e487b7160e01b600052601160045260246000fd5b60008219821115610b8257610b82610b59565b500190565b600181811c90821680610b9b57607f821691505b602082108103610bbb57634e487b7160e01b600052602260045260246000fd5b50919050565b60008154610bce81610b87565b808552602060018381168015610beb5760018114610bff57610c2d565b60ff19851688840152604088019550610c2d565b866000528260002060005b85811015610c255781548a8201860152908301908401610c0a565b890184019650505b505050505092915050565b606081526000610c4b6060830186610bc1565b8281036020840152610c5d8186610bc1565b915050826040830152949350505050565b600060018201610c8057610c80610b59565b5060010190565b606081526000610c9a6060830186610972565b8281036020840152610c5d8186610972565b6000808354610cba81610b87565b60018281168015610cd25760018114610ce357610d12565b60ff19841687528287019450610d12565b8760005260208060002060005b85811015610d095781548a820152908401908201610cf0565b50505082870194505b50929695505050505050565b60008251610d30818460208701610942565b9190910192915050565b608081526000610d4d6080830187610bc1565b6020830195909552506001600160a01b0392909216604083015260609091015291905056fea264697066735822122052c5be3ba37539fb728de9c38ded3e06a698e379415d6b322da8efbeffe7e60264736f6c634300080d0033",
  "immutableReferences": {},
  "source": "// SPDX-License-Identifier: MIT\r\npragma solidity ^0.8.0;\r\n\r\ncontract Booth{\r\n    // contestant id\r\n    uint public candidateId;\r\n    // contestant struct\r\n    struct Contestant{\r\n        string name;\r\n        string party;\r\n        uint voteCount;\r\n        address adress;\r\n    }\r\n    // voter struct\r\n    struct Voter{\r\n        bool voted;\r\n        bool exists;\r\n    }\r\n    // array of contestants\r\n    Contestant[] public contestants;\r\n    // map contestant id to contestant struct\r\n    mapping (uint=>Contestant) public contestant;\r\n    // map voterId to voter\r\n    mapping (address=>Voter) public voter;\r\n    // Events\r\n    event ContestantAdded(string name, string party,uint id);\r\n    event Voted(string name, string party, uint votes);\r\n    event Registered(address voterAddress);\r\n    event VoterState(bool voted,bool exists);\r\n    event ContestantDetails(string indexed encryption, string indexed name, string party, uint votes, address adress, uint id);\r\n    // constructor\r\n    // constructor(){};\r\n    // add contestant\r\n    function addContestant(string memory name, string memory party)public{\r\n        candidateId++;\r\n        contestant[candidateId]=Contestant({\r\n            name:name,\r\n            party:party,\r\n            voteCount:0,\r\n            adress:msg.sender\r\n        });\r\n        contestants.push(contestant[candidateId]);\r\n        emit ContestantAdded(name,party,candidateId);\r\n    }\r\n    // vote\r\n    function vote(uint id)public{\r\n        require(id>0 && id<=candidateId,\"Please enter a valid id\");\r\n        require(voter[msg.sender].exists,\"voter does not exist\");\r\n        require(!voter[msg.sender].voted,\"voter has already voted\");\r\n        contestant[id].voteCount+=1;\r\n        voter[msg.sender].voted=true;\r\n        emit Voted(contestant[id].name,contestant[id].party,contestant[id].voteCount);\r\n    }\r\n    // register voter\r\n    function registerVoter()public{\r\n        // require voter does not exist\r\n        require(!voter[msg.sender].exists,'voter already exists');\r\n        // register the voter\r\n        voter[msg.sender]=Voter({\r\n            voted:false,\r\n            exists:true\r\n        });\r\n        emit Registered(msg.sender);\r\n    }\r\n    function getVotedState()public{\r\n        emit VoterState(voter[msg.sender].voted, voter[msg.sender].exists);\r\n    }\r\n    function getVoteeDetails(uint id,string memory hashes)public{\r\n        emit ContestantDetails(hashes,contestant[id].name,contestant[id].party,contestant[id].voteCount,contestant[id].adress,id);\r\n    }\r\n}",
  "sourcePath": "C:\\Users\\DADA\\Desktop\\Mevote\\src\\contracts\\Booth.sol",
  "compiler": {
    "name": "solc",
    "version": "0.8.13+commit.abaa5c0e.Emscripten.clang"
  },
  "schemaVersion": "3.4.5",
  "updatedAt": "2022-05-13T12:22:22.486Z",
  "networkType": "ethereum",
  "devdoc": {
    "kind": "dev",
    "methods": {},
    "version": 1
  },
  "userdoc": {
    "kind": "user",
    "methods": {},
    "version": 1
  }
}