{
  "contractName": "Booth",
  "abi": [
    {
      "anonymous": false,
      "inputs": [
        {
          "indexed": false,
          "internalType": "string",
          "name": "name",
          "type": "string"
        },
        {
          "indexed": false,
          "internalType": "string",
          "name": "party",
          "type": "string"
        },
        {
          "indexed": false,
          "internalType": "uint256",
          "name": "id",
          "type": "uint256"
        }
      ],
      "name": "ContestantAdded",
      "type": "event"
    },
    {
      "anonymous": false,
      "inputs": [
        {
          "indexed": false,
          "internalType": "string",
          "name": "name",
          "type": "string"
        },
        {
          "indexed": false,
          "internalType": "string",
          "name": "party",
          "type": "string"
        },
        {
          "indexed": false,
          "internalType": "uint256",
          "name": "votes",
          "type": "uint256"
        },
        {
          "indexed": false,
          "internalType": "address",
          "name": "adress",
          "type": "address"
        },
        {
          "indexed": false,
          "internalType": "uint256",
          "name": "id",
          "type": "uint256"
        }
      ],
      "name": "ContestantDetails",
      "type": "event"
    },
    {
      "anonymous": false,
      "inputs": [
        {
          "indexed": false,
          "internalType": "address",
          "name": "voterAddress",
          "type": "address"
        }
      ],
      "name": "Registered",
      "type": "event"
    },
    {
      "anonymous": false,
      "inputs": [
        {
          "indexed": false,
          "internalType": "string",
          "name": "name",
          "type": "string"
        },
        {
          "indexed": false,
          "internalType": "string",
          "name": "party",
          "type": "string"
        },
        {
          "indexed": false,
          "internalType": "uint256",
          "name": "votes",
          "type": "uint256"
        }
      ],
      "name": "Voted",
      "type": "event"
    },
    {
      "anonymous": false,
      "inputs": [
        {
          "indexed": false,
          "internalType": "bool",
          "name": "voted",
          "type": "bool"
        },
        {
          "indexed": false,
          "internalType": "bool",
          "name": "exists",
          "type": "bool"
        }
      ],
      "name": "VoterState",
      "type": "event"
    },
    {
      "inputs": [],
      "name": "candidateId",
      "outputs": [
        {
          "internalType": "uint256",
          "name": "",
          "type": "uint256"
        }
      ],
      "stateMutability": "view",
      "type": "function",
      "constant": true
    },
    {
      "inputs": [
        {
          "internalType": "uint256",
          "name": "",
          "type": "uint256"
        }
      ],
      "name": "contestant",
      "outputs": [
        {
          "internalType": "string",
          "name": "name",
          "type": "string"
        },
        {
          "internalType": "string",
          "name": "party",
          "type": "string"
        },
        {
          "internalType": "uint256",
          "name": "voteCount",
          "type": "uint256"
        },
        {
          "internalType": "address",
          "name": "adress",
          "type": "address"
        }
      ],
      "stateMutability": "view",
      "type": "function",
      "constant": true
    },
    {
      "inputs": [
        {
          "internalType": "uint256",
          "name": "",
          "type": "uint256"
        }
      ],
      "name": "contestants",
      "outputs": [
        {
          "internalType": "string",
          "name": "name",
          "type": "string"
        },
        {
          "internalType": "string",
          "name": "party",
          "type": "string"
        },
        {
          "internalType": "uint256",
          "name": "voteCount",
          "type": "uint256"
        },
        {
          "internalType": "address",
          "name": "adress",
          "type": "address"
        }
      ],
      "stateMutability": "view",
      "type": "function",
      "constant": true
    },
    {
      "inputs": [
        {
          "internalType": "address",
          "name": "",
          "type": "address"
        }
      ],
      "name": "voter",
      "outputs": [
        {
          "internalType": "bool",
          "name": "voted",
          "type": "bool"
        },
        {
          "internalType": "bool",
          "name": "exists",
          "type": "bool"
        }
      ],
      "stateMutability": "view",
      "type": "function",
      "constant": true
    },
    {
      "inputs": [
        {
          "internalType": "string",
          "name": "name",
          "type": "string"
        },
        {
          "internalType": "string",
          "name": "party",
          "type": "string"
        }
      ],
      "name": "addContestant",
      "outputs": [],
      "stateMutability": "nonpayable",
      "type": "function"
    },
    {
      "inputs": [
        {
          "internalType": "uint256",
          "name": "id",
          "type": "uint256"
        }
      ],
      "name": "vote",
      "outputs": [],
      "stateMutability": "nonpayable",
      "type": "function"
    },
    {
      "inputs": [],
      "name": "registerVoter",
      "outputs": [],
      "stateMutability": "nonpayable",
      "type": "function"
    },
    {
      "inputs": [],
      "name": "getVotedState",
      "outputs": [],
      "stateMutability": "nonpayable",
      "type": "function"
    },
    {
      "inputs": [
        {
          "internalType": "uint256",
          "name": "id",
          "type": "uint256"
        }
      ],
      "name": "getVoteeDetails",
      "outputs": [],
      "stateMutability": "nonpayable",
      "type": "function"
    }
  ],
  "bytecode": "0x608060405234801561001057600080fd5b50610cc4806100206000396000f3fe608060405234801561001057600080fd5b50600436106100935760003560e01c8063af0dbe5411610066578063af0dbe5414610103578063c8fdc2ea14610146578063cdac31cc14610159578063dfd50f5214610161578063ecb617d91461017457600080fd5b80630121b93f146100985780632c9e773a146100ad5780637873bc61146100c05780639f91e6bf146100ec575b600080fd5b6100ab6100a63660046108e3565b61017c565b005b6100ab6100bb3660046108e3565b61032f565b6100d36100ce3660046108e3565b61038b565b6040516100e39493929190610949565b60405180910390f35b6100f560005481565b6040519081526020016100e3565b61012f610111366004610990565b60036020526000908152604090205460ff8082169161010090041682565b6040805192151583529015156020830152016100e3565b6100ab610154366004610a63565b6104cd565b6100ab610665565b6100d361016f3660046108e3565b6106c8565b6100ab6106fb565b60008111801561018e57506000548111155b6101df5760405162461bcd60e51b815260206004820152601760248201527f506c6561736520656e74657220612076616c696420696400000000000000000060448201526064015b60405180910390fd5b33600090815260036020526040902054610100900460ff1661023a5760405162461bcd60e51b81526020600482015260146024820152731d9bdd195c88191bd95cc81b9bdd08195e1a5cdd60621b60448201526064016101d6565b3360009081526003602052604090205460ff161561029a5760405162461bcd60e51b815260206004820152601760248201527f766f7465722068617320616c726561647920766f74656400000000000000000060448201526064016101d6565b60008181526002602081905260408220018054600192906102bc908490610add565b9091555050336000908152600360209081526040808320805460ff19166001908117909155848452600292839052928190209182015490517f2610aa2b32505d0b372e2695cef7ff28b0127250b30a4dbbb05a86d2fb1e524e93610324939290830191610bce565b60405180910390a150565b60008181526002602081905260409182902090810154600382015492517f08c3678491d81e5a2f761fd93717668bfb4d2d7cdf4e119a5afc3d0c80a6e4ff936103249392600184019290916001600160a01b0316908790610c04565b6002602052600090815260409020805481906103a690610af5565b80601f01602080910402602001604051908101604052809291908181526020018280546103d290610af5565b801561041f5780601f106103f45761010080835404028352916020019161041f565b820191906000526020600020905b81548152906001019060200180831161040257829003601f168201915b50505050509080600101805461043490610af5565b80601f016020809104026020016040519081016040528092919081815260200182805461046090610af5565b80156104ad5780601f10610482576101008083540402835291602001916104ad565b820191906000526020600020905b81548152906001019060200180831161049057829003601f168201915b5050505060028301546003909301549192916001600160a01b0316905084565b6000805490806104dc83610c50565b90915550506040805160808101825283815260208082018490526000828401819052336060840152805481526002825292909220815180519293919261052592849201906107cf565b50602082810151805161053e92600185019201906107cf565b50604082810151600280840191909155606090930151600390920180546001600160a01b039093166001600160a01b03199093169290921790915560008054815260209290925281206001805480820182559252805490916004027fb10e2d527612073b26eecdfd717e6a320cf44b4afac2b0732d9fcbe2b7fa0cf60190819083906105c990610af5565b6105d4929190610853565b5060018201816001019080546105e990610af5565b6105f4929190610853565b5060028281015490820155600391820154910180546001600160a01b0319166001600160a01b039092169190911790556000546040517f3f06c37be0186362983134864f50b39e5523d52b7bbb5d584b46c0d226138db4916106599185918591610c69565b60405180910390a15050565b33600090815260036020526040908190205490517fd9aafec0d93f6584826a285b9d8fbe390047d28e6b0034924993fa600539dccb916106be9160ff808316926101009004169091151582521515602082015260400190565b60405180910390a1565b600181815481106106d857600080fd5b90600052602060002090600402016000915090508060000180546103a690610af5565b33600090815260036020526040902054610100900460ff16156107575760405162461bcd60e51b8152602060048201526014602482015273766f74657220616c72656164792065786973747360601b60448201526064016101d6565b60408051808201825260008082526001602080840191825233808452600382529285902093518454925161ffff1990931690151561ff00191617610100921515929092029190911790925591519182527f2d3734a8e47ac8316e500ac231c90a6e1848ca2285f40d07eaa52005e4b3a0e991016106be565b8280546107db90610af5565b90600052602060002090601f0160209004810192826107fd5760008555610843565b82601f1061081657805160ff1916838001178555610843565b82800160010185558215610843579182015b82811115610843578251825591602001919060010190610828565b5061084f9291506108ce565b5090565b82805461085f90610af5565b90600052602060002090601f0160209004810192826108815760008555610843565b82601f106108925780548555610843565b8280016001018555821561084357600052602060002091601f016020900482015b828111156108435782548255916001019190600101906108b3565b5b8082111561084f57600081556001016108cf565b6000602082840312156108f557600080fd5b5035919050565b6000815180845260005b8181101561092257602081850181015186830182015201610906565b81811115610934576000602083870101525b50601f01601f19169290920160200192915050565b60808152600061095c60808301876108fc565b828103602084015261096e81876108fc565b604084019590955250506001600160a01b039190911660609091015292915050565b6000602082840312156109a257600080fd5b81356001600160a01b03811681146109b957600080fd5b9392505050565b634e487b7160e01b600052604160045260246000fd5b600082601f8301126109e757600080fd5b813567ffffffffffffffff80821115610a0257610a026109c0565b604051601f8301601f19908116603f01168101908282118183101715610a2a57610a2a6109c0565b81604052838152866020858801011115610a4357600080fd5b836020870160208301376000602085830101528094505050505092915050565b60008060408385031215610a7657600080fd5b823567ffffffffffffffff80821115610a8e57600080fd5b610a9a868387016109d6565b93506020850135915080821115610ab057600080fd5b50610abd858286016109d6565b9150509250929050565b634e487b7160e01b600052601160045260246000fd5b60008219821115610af057610af0610ac7565b500190565b600181811c90821680610b0957607f821691505b602082108103610b2957634e487b7160e01b600052602260045260246000fd5b50919050565b8054600090600181811c9080831680610b4957607f831692505b60208084108203610b6a57634e487b7160e01b600052602260045260246000fd5b83885260208801828015610b855760018114610b9657610bc1565b60ff19871682528282019750610bc1565b60008981526020902060005b87811015610bbb57815484820152908601908401610ba2565b83019850505b5050505050505092915050565b606081526000610be16060830186610b2f565b8281036020840152610bf38186610b2f565b915050826040830152949350505050565b60a081526000610c1760a0830188610b2f565b8281036020840152610c298188610b2f565b604084019690965250506001600160a01b0392909216606083015260809091015292915050565b600060018201610c6257610c62610ac7565b5060010190565b606081526000610c7c60608301866108fc565b8281036020840152610bf381866108fc56fea2646970667358221220c09f9debf9bed0de04fc8599dee93f17cd823015b119f05b8ff9b7aa6a81206764736f6c634300080d0033",
  "immutableReferences": {},
  "source": "// SPDX-License-Identifier: MIT\r\npragma solidity ^0.8.0;\r\n\r\ncontract Booth{\r\n    // contestant id\r\n    uint public candidateId;\r\n    // contestant struct\r\n    struct Contestant{\r\n        string name;\r\n        string party;\r\n        uint voteCount;\r\n        address adress;\r\n    }\r\n    // voter struct\r\n    struct Voter{\r\n        bool voted;\r\n        bool exists;\r\n    }\r\n    // array of contestants\r\n    Contestant[] public contestants;\r\n    // map contestant id to contestant struct\r\n    mapping (uint=>Contestant) public contestant;\r\n    // map voterId to voter\r\n    mapping (address=>Voter) public voter;\r\n    // Events\r\n    event ContestantAdded(string name, string party,uint id);\r\n    event Voted(string name, string party, uint votes);\r\n    event Registered(address voterAddress);\r\n    event VoterState(bool voted,bool exists);\r\n    event ContestantDetails(string name, string party, uint votes, address adress, uint id);\r\n    // constructor\r\n    // constructor(){};\r\n    // add contestant\r\n    function addContestant(string memory name, string memory party)public{\r\n        candidateId++;\r\n        contestant[candidateId]=Contestant({\r\n            name:name,\r\n            party:party,\r\n            voteCount:0,\r\n            adress:msg.sender\r\n        });\r\n        contestants.push(contestant[candidateId]);\r\n        emit ContestantAdded(name,party,candidateId);\r\n    }\r\n    // vote\r\n    function vote(uint id)public{\r\n        require(id>0 && id<=candidateId,\"Please enter a valid id\");\r\n        require(voter[msg.sender].exists,\"voter does not exist\");\r\n        require(!voter[msg.sender].voted,\"voter has already voted\");\r\n        contestant[id].voteCount+=1;\r\n        voter[msg.sender].voted=true;\r\n        emit Voted(contestant[id].name,contestant[id].party,contestant[id].voteCount);\r\n    }\r\n    // register voter\r\n    function registerVoter()public{\r\n        // require voter does not exist\r\n        require(!voter[msg.sender].exists,'voter already exists');\r\n        // register the voter\r\n        voter[msg.sender]=Voter({\r\n            voted:false,\r\n            exists:true\r\n        });\r\n        emit Registered(msg.sender);\r\n    }\r\n    function getVotedState()public{\r\n        emit VoterState(voter[msg.sender].voted, voter[msg.sender].exists);\r\n    }\r\n    function getVoteeDetails(uint id)public{\r\n        emit ContestantDetails(contestant[id].name,contestant[id].party,contestant[id].voteCount,contestant[id].adress,id);\r\n    }\r\n}",
  "sourcePath": "C:\\Users\\DADA\\Desktop\\Mevote\\src\\contracts\\Booth.sol",
  "compiler": {
    "name": "solc",
    "version": "0.8.13+commit.abaa5c0e.Emscripten.clang"
  },
  "schemaVersion": "3.4.5",
  "updatedAt": "2022-05-10T16:43:47.708Z",
  "networkType": "ethereum",
  "devdoc": {
    "kind": "dev",
    "methods": {},
    "version": 1
  },
  "userdoc": {
    "kind": "user",
    "methods": {},
    "version": 1
  }
}